{
  "_format": "hh-sol-artifact-1",
  "contractName": "FIRManagement",
  "sourceName": "contracts/FIR.sol",
  "abi": [
    {
      "anonymous": false,
      "inputs": [
        {
          "indexed": false,
          "internalType": "uint256",
          "name": "firId",
          "type": "uint256"
        },
        {
          "indexed": false,
          "internalType": "string",
          "name": "victimName",
          "type": "string"
        },
        {
          "indexed": false,
          "internalType": "string",
          "name": "accusedNames",
          "type": "string"
        },
        {
          "indexed": false,
          "internalType": "string",
          "name": "subject",
          "type": "string"
        },
        {
          "indexed": false,
          "internalType": "string",
          "name": "description",
          "type": "string"
        },
        {
          "indexed": false,
          "internalType": "string",
          "name": "state",
          "type": "string"
        },
        {
          "indexed": false,
          "internalType": "string",
          "name": "district",
          "type": "string"
        },
        {
          "indexed": false,
          "internalType": "address",
          "name": "thanaAddress",
          "type": "address"
        },
        {
          "indexed": false,
          "internalType": "string",
          "name": "documentHash",
          "type": "string"
        },
        {
          "indexed": false,
          "internalType": "address",
          "name": "lodgedBy",
          "type": "address"
        },
        {
          "indexed": false,
          "internalType": "uint256",
          "name": "timestamp",
          "type": "uint256"
        },
        {
          "indexed": false,
          "internalType": "string",
          "name": "status",
          "type": "string"
        }
      ],
      "name": "FIRLodged",
      "type": "event"
    },
    {
      "anonymous": false,
      "inputs": [
        {
          "indexed": false,
          "internalType": "uint256",
          "name": "firId",
          "type": "uint256"
        },
        {
          "indexed": false,
          "internalType": "string",
          "name": "status",
          "type": "string"
        }
      ],
      "name": "FIRStatusUpdated",
      "type": "event"
    },
    {
      "inputs": [
        {
          "internalType": "uint256",
          "name": "",
          "type": "uint256"
        }
      ],
      "name": "firById",
      "outputs": [
        {
          "internalType": "string",
          "name": "victimName",
          "type": "string"
        },
        {
          "internalType": "string",
          "name": "accusedNames",
          "type": "string"
        },
        {
          "internalType": "string",
          "name": "subject",
          "type": "string"
        },
        {
          "internalType": "string",
          "name": "description",
          "type": "string"
        },
        {
          "internalType": "string",
          "name": "state",
          "type": "string"
        },
        {
          "internalType": "string",
          "name": "district",
          "type": "string"
        },
        {
          "internalType": "address",
          "name": "thanaAddress",
          "type": "address"
        },
        {
          "internalType": "string",
          "name": "documentHash",
          "type": "string"
        },
        {
          "internalType": "uint256",
          "name": "firId",
          "type": "uint256"
        },
        {
          "internalType": "address",
          "name": "lodgedBy",
          "type": "address"
        },
        {
          "internalType": "uint256",
          "name": "timestamp",
          "type": "uint256"
        },
        {
          "internalType": "string",
          "name": "status",
          "type": "string"
        }
      ],
      "stateMutability": "view",
      "type": "function"
    },
    {
      "inputs": [
        {
          "internalType": "uint256",
          "name": "",
          "type": "uint256"
        }
      ],
      "name": "firs",
      "outputs": [
        {
          "internalType": "string",
          "name": "victimName",
          "type": "string"
        },
        {
          "internalType": "string",
          "name": "accusedNames",
          "type": "string"
        },
        {
          "internalType": "string",
          "name": "subject",
          "type": "string"
        },
        {
          "internalType": "string",
          "name": "description",
          "type": "string"
        },
        {
          "internalType": "string",
          "name": "state",
          "type": "string"
        },
        {
          "internalType": "string",
          "name": "district",
          "type": "string"
        },
        {
          "internalType": "address",
          "name": "thanaAddress",
          "type": "address"
        },
        {
          "internalType": "string",
          "name": "documentHash",
          "type": "string"
        },
        {
          "internalType": "uint256",
          "name": "firId",
          "type": "uint256"
        },
        {
          "internalType": "address",
          "name": "lodgedBy",
          "type": "address"
        },
        {
          "internalType": "uint256",
          "name": "timestamp",
          "type": "uint256"
        },
        {
          "internalType": "string",
          "name": "status",
          "type": "string"
        }
      ],
      "stateMutability": "view",
      "type": "function"
    },
    {
      "inputs": [
        {
          "internalType": "address",
          "name": "",
          "type": "address"
        },
        {
          "internalType": "uint256",
          "name": "",
          "type": "uint256"
        }
      ],
      "name": "firsByThana",
      "outputs": [
        {
          "internalType": "uint256",
          "name": "",
          "type": "uint256"
        }
      ],
      "stateMutability": "view",
      "type": "function"
    },
    {
      "inputs": [
        {
          "internalType": "address",
          "name": "",
          "type": "address"
        },
        {
          "internalType": "uint256",
          "name": "",
          "type": "uint256"
        }
      ],
      "name": "firsByVictim",
      "outputs": [
        {
          "internalType": "uint256",
          "name": "",
          "type": "uint256"
        }
      ],
      "stateMutability": "view",
      "type": "function"
    },
    {
      "inputs": [
        {
          "internalType": "uint256",
          "name": "_firId",
          "type": "uint256"
        }
      ],
      "name": "getFIRDetails",
      "outputs": [
        {
          "components": [
            {
              "internalType": "string",
              "name": "victimName",
              "type": "string"
            },
            {
              "internalType": "string",
              "name": "accusedNames",
              "type": "string"
            },
            {
              "internalType": "string",
              "name": "subject",
              "type": "string"
            },
            {
              "internalType": "string",
              "name": "description",
              "type": "string"
            },
            {
              "internalType": "string",
              "name": "state",
              "type": "string"
            },
            {
              "internalType": "string",
              "name": "district",
              "type": "string"
            },
            {
              "internalType": "address",
              "name": "thanaAddress",
              "type": "address"
            },
            {
              "internalType": "string",
              "name": "documentHash",
              "type": "string"
            },
            {
              "internalType": "uint256",
              "name": "firId",
              "type": "uint256"
            },
            {
              "internalType": "address",
              "name": "lodgedBy",
              "type": "address"
            },
            {
              "internalType": "uint256",
              "name": "timestamp",
              "type": "uint256"
            },
            {
              "internalType": "string",
              "name": "status",
              "type": "string"
            }
          ],
          "internalType": "struct FIRManagement.FIR",
          "name": "",
          "type": "tuple"
        }
      ],
      "stateMutability": "view",
      "type": "function"
    },
    {
      "inputs": [],
      "name": "getMyFIRs",
      "outputs": [
        {
          "internalType": "uint256[]",
          "name": "",
          "type": "uint256[]"
        }
      ],
      "stateMutability": "view",
      "type": "function"
    },
    {
      "inputs": [],
      "name": "getThanaFIRs",
      "outputs": [
        {
          "internalType": "uint256[]",
          "name": "",
          "type": "uint256[]"
        }
      ],
      "stateMutability": "view",
      "type": "function"
    },
    {
      "inputs": [
        {
          "internalType": "string",
          "name": "_victimName",
          "type": "string"
        },
        {
          "internalType": "string",
          "name": "_accusedNames",
          "type": "string"
        },
        {
          "internalType": "string",
          "name": "_subject",
          "type": "string"
        },
        {
          "internalType": "string",
          "name": "_description",
          "type": "string"
        },
        {
          "internalType": "string",
          "name": "_state",
          "type": "string"
        },
        {
          "internalType": "string",
          "name": "_district",
          "type": "string"
        },
        {
          "internalType": "address",
          "name": "_thanaAddress",
          "type": "address"
        },
        {
          "internalType": "string",
          "name": "_documentHash",
          "type": "string"
        },
        {
          "internalType": "uint256",
          "name": "_firId",
          "type": "uint256"
        },
        {
          "internalType": "string",
          "name": "_status",
          "type": "string"
        }
      ],
      "name": "lodgeFir",
      "outputs": [],
      "stateMutability": "nonpayable",
      "type": "function"
    },
    {
      "inputs": [
        {
          "internalType": "uint256",
          "name": "_firId",
          "type": "uint256"
        },
        {
          "internalType": "string",
          "name": "_status",
          "type": "string"
        }
      ],
      "name": "updateFIRStatus",
      "outputs": [],
      "stateMutability": "nonpayable",
      "type": "function"
    }
  ],
  "bytecode": "0x608060405234801561001057600080fd5b50612671806100206000396000f3fe608060405234801561001057600080fd5b50600436106100935760003560e01c8063ae1546ee11610066578063ae1546ee1461013f578063ba22ba311461015b578063c173c9a114610196578063d5d4e2e5146101c6578063f368df65146101e257610093565b80630a4d7f59146100985780630d5dc3ae146100b657806338fe1e11146100d4578063a4de172d14610104575b600080fd5b6100a0610212565b6040516100ad91906119e7565b60405180910390f35b6100be6102a7565b6040516100cb91906119e7565b60405180910390f35b6100ee60048036038101906100e99190611a49565b61033c565b6040516100fb9190611c7c565b60405180910390f35b61011e60048036038101906101199190611a49565b6108ba565b6040516101369c9b9a99989796959493929190611d06565b60405180910390f35b61015960048036038101906101549190611f59565b610daa565b005b61017560048036038101906101709190611a49565b611243565b60405161018d9c9b9a99989796959493929190611d06565b60405180910390f35b6101b060048036038101906101ab9190612118565b611723565b6040516101bd9190612158565b60405180910390f35b6101e060048036038101906101db9190612173565b611754565b005b6101fc60048036038101906101f79190612118565b611861565b6040516102099190612158565b60405180910390f35b6060600260003373ffffffffffffffffffffffffffffffffffffffff1673ffffffffffffffffffffffffffffffffffffffff16815260200190815260200160002080548060200260200160405190810160405280929190818152602001828054801561029d57602002820191906000526020600020905b815481526020019060010190808311610289575b5050505050905090565b6060600160003373ffffffffffffffffffffffffffffffffffffffff1673ffffffffffffffffffffffffffffffffffffffff16815260200190815260200160002080548060200260200160405190810160405280929190818152602001828054801561033257602002820191906000526020600020905b81548152602001906001019080831161031e575b5050505050905090565b610344611892565b6003600083815260200190815260200160002060405180610180016040529081600082018054610373906121fe565b80601f016020809104026020016040519081016040528092919081815260200182805461039f906121fe565b80156103ec5780601f106103c1576101008083540402835291602001916103ec565b820191906000526020600020905b8154815290600101906020018083116103cf57829003601f168201915b50505050508152602001600182018054610405906121fe565b80601f0160208091040260200160405190810160405280929190818152602001828054610431906121fe565b801561047e5780601f106104535761010080835404028352916020019161047e565b820191906000526020600020905b81548152906001019060200180831161046157829003601f168201915b50505050508152602001600282018054610497906121fe565b80601f01602080910402602001604051908101604052809291908181526020018280546104c3906121fe565b80156105105780601f106104e557610100808354040283529160200191610510565b820191906000526020600020905b8154815290600101906020018083116104f357829003601f168201915b50505050508152602001600382018054610529906121fe565b80601f0160208091040260200160405190810160405280929190818152602001828054610555906121fe565b80156105a25780601f10610577576101008083540402835291602001916105a2565b820191906000526020600020905b81548152906001019060200180831161058557829003601f168201915b505050505081526020016004820180546105bb906121fe565b80601f01602080910402602001604051908101604052809291908181526020018280546105e7906121fe565b80156106345780601f1061060957610100808354040283529160200191610634565b820191906000526020600020905b81548152906001019060200180831161061757829003601f168201915b5050505050815260200160058201805461064d906121fe565b80601f0160208091040260200160405190810160405280929190818152602001828054610679906121fe565b80156106c65780601f1061069b576101008083540402835291602001916106c6565b820191906000526020600020905b8154815290600101906020018083116106a957829003601f168201915b505050505081526020016006820160009054906101000a900473ffffffffffffffffffffffffffffffffffffffff1673ffffffffffffffffffffffffffffffffffffffff1673ffffffffffffffffffffffffffffffffffffffff168152602001600782018054610735906121fe565b80601f0160208091040260200160405190810160405280929190818152602001828054610761906121fe565b80156107ae5780601f10610783576101008083540402835291602001916107ae565b820191906000526020600020905b81548152906001019060200180831161079157829003601f168201915b50505050508152602001600882015481526020016009820160009054906101000a900473ffffffffffffffffffffffffffffffffffffffff1673ffffffffffffffffffffffffffffffffffffffff1673ffffffffffffffffffffffffffffffffffffffff168152602001600a8201548152602001600b82018054610831906121fe565b80601f016020809104026020016040519081016040528092919081815260200182805461085d906121fe565b80156108aa5780601f1061087f576101008083540402835291602001916108aa565b820191906000526020600020905b81548152906001019060200180831161088d57829003601f168201915b5050505050815250509050919050565b600081815481106108ca57600080fd5b90600052602060002090600c02016000915090508060000180546108ed906121fe565b80601f0160208091040260200160405190810160405280929190818152602001828054610919906121fe565b80156109665780601f1061093b57610100808354040283529160200191610966565b820191906000526020600020905b81548152906001019060200180831161094957829003601f168201915b50505050509080600101805461097b906121fe565b80601f01602080910402602001604051908101604052809291908181526020018280546109a7906121fe565b80156109f45780601f106109c9576101008083540402835291602001916109f4565b820191906000526020600020905b8154815290600101906020018083116109d757829003601f168201915b505050505090806002018054610a09906121fe565b80601f0160208091040260200160405190810160405280929190818152602001828054610a35906121fe565b8015610a825780601f10610a5757610100808354040283529160200191610a82565b820191906000526020600020905b815481529060010190602001808311610a6557829003601f168201915b505050505090806003018054610a97906121fe565b80601f0160208091040260200160405190810160405280929190818152602001828054610ac3906121fe565b8015610b105780601f10610ae557610100808354040283529160200191610b10565b820191906000526020600020905b815481529060010190602001808311610af357829003601f168201915b505050505090806004018054610b25906121fe565b80601f0160208091040260200160405190810160405280929190818152602001828054610b51906121fe565b8015610b9e5780601f10610b7357610100808354040283529160200191610b9e565b820191906000526020600020905b815481529060010190602001808311610b8157829003601f168201915b505050505090806005018054610bb3906121fe565b80601f0160208091040260200160405190810160405280929190818152602001828054610bdf906121fe565b8015610c2c5780601f10610c0157610100808354040283529160200191610c2c565b820191906000526020600020905b815481529060010190602001808311610c0f57829003601f168201915b5050505050908060060160009054906101000a900473ffffffffffffffffffffffffffffffffffffffff1690806007018054610c67906121fe565b80601f0160208091040260200160405190810160405280929190818152602001828054610c93906121fe565b8015610ce05780601f10610cb557610100808354040283529160200191610ce0565b820191906000526020600020905b815481529060010190602001808311610cc357829003601f168201915b5050505050908060080154908060090160009054906101000a900473ffffffffffffffffffffffffffffffffffffffff169080600a01549080600b018054610d27906121fe565b80601f0160208091040260200160405190810160405280929190818152602001828054610d53906121fe565b8015610da05780601f10610d7557610100808354040283529160200191610da0565b820191906000526020600020905b815481529060010190602001808311610d8357829003601f168201915b505050505090508c565b60006040518061018001604052808c81526020018b81526020018a81526020018981526020018881526020018781526020018673ffffffffffffffffffffffffffffffffffffffff1681526020018581526020018481526020013373ffffffffffffffffffffffffffffffffffffffff16815260200142815260200183815250905060008190806001815401808255809150506001900390600052602060002090600c02016000909190919091506000820151816000019081610e6d91906123db565b506020820151816001019081610e8391906123db565b506040820151816002019081610e9991906123db565b506060820151816003019081610eaf91906123db565b506080820151816004019081610ec591906123db565b5060a0820151816005019081610edb91906123db565b5060c08201518160060160006101000a81548173ffffffffffffffffffffffffffffffffffffffff021916908373ffffffffffffffffffffffffffffffffffffffff16021790555060e0820151816007019081610f3891906123db565b5061010082015181600801556101208201518160090160006101000a81548173ffffffffffffffffffffffffffffffffffffffff021916908373ffffffffffffffffffffffffffffffffffffffff16021790555061014082015181600a015561016082015181600b019081610fad91906123db565b50505080600360008581526020019081526020016000206000820151816000019081610fd991906123db565b506020820151816001019081610fef91906123db565b50604082015181600201908161100591906123db565b50606082015181600301908161101b91906123db565b50608082015181600401908161103191906123db565b5060a082015181600501908161104791906123db565b5060c08201518160060160006101000a81548173ffffffffffffffffffffffffffffffffffffffff021916908373ffffffffffffffffffffffffffffffffffffffff16021790555060e08201518160070190816110a491906123db565b5061010082015181600801556101208201518160090160006101000a81548173ffffffffffffffffffffffffffffffffffffffff021916908373ffffffffffffffffffffffffffffffffffffffff16021790555061014082015181600a015561016082015181600b01908161111991906123db565b50905050600160003373ffffffffffffffffffffffffffffffffffffffff1673ffffffffffffffffffffffffffffffffffffffff168152602001908152602001600020839080600181540180825580915050600190039060005260206000200160009091909190915055600260008673ffffffffffffffffffffffffffffffffffffffff1673ffffffffffffffffffffffffffffffffffffffff1681526020019081526020016000208390806001815401808255809150506001900390600052602060002001600090919091909150557f13ec4fe383c7ccdf713b30f8cf1a160491f6934684b5ffa112bcc340c9c11d3a838c8b8d8c8c8c8c8c33428d60405161122e9c9b9a999897969594939291906124ad565b60405180910390a15050505050505050505050565b6003602052806000526040600020600091509050806000018054611266906121fe565b80601f0160208091040260200160405190810160405280929190818152602001828054611292906121fe565b80156112df5780601f106112b4576101008083540402835291602001916112df565b820191906000526020600020905b8154815290600101906020018083116112c257829003601f168201915b5050505050908060010180546112f4906121fe565b80601f0160208091040260200160405190810160405280929190818152602001828054611320906121fe565b801561136d5780601f106113425761010080835404028352916020019161136d565b820191906000526020600020905b81548152906001019060200180831161135057829003601f168201915b505050505090806002018054611382906121fe565b80601f01602080910402602001604051908101604052809291908181526020018280546113ae906121fe565b80156113fb5780601f106113d0576101008083540402835291602001916113fb565b820191906000526020600020905b8154815290600101906020018083116113de57829003601f168201915b505050505090806003018054611410906121fe565b80601f016020809104026020016040519081016040528092919081815260200182805461143c906121fe565b80156114895780601f1061145e57610100808354040283529160200191611489565b820191906000526020600020905b81548152906001019060200180831161146c57829003601f168201915b50505050509080600401805461149e906121fe565b80601f01602080910402602001604051908101604052809291908181526020018280546114ca906121fe565b80156115175780601f106114ec57610100808354040283529160200191611517565b820191906000526020600020905b8154815290600101906020018083116114fa57829003601f168201915b50505050509080600501805461152c906121fe565b80601f0160208091040260200160405190810160405280929190818152602001828054611558906121fe565b80156115a55780601f1061157a576101008083540402835291602001916115a5565b820191906000526020600020905b81548152906001019060200180831161158857829003601f168201915b5050505050908060060160009054906101000a900473ffffffffffffffffffffffffffffffffffffffff16908060070180546115e0906121fe565b80601f016020809104026020016040519081016040528092919081815260200182805461160c906121fe565b80156116595780601f1061162e57610100808354040283529160200191611659565b820191906000526020600020905b81548152906001019060200180831161163c57829003601f168201915b5050505050908060080154908060090160009054906101000a900473ffffffffffffffffffffffffffffffffffffffff169080600a01549080600b0180546116a0906121fe565b80601f01602080910402602001604051908101604052809291908181526020018280546116cc906121fe565b80156117195780601f106116ee57610100808354040283529160200191611719565b820191906000526020600020905b8154815290600101906020018083116116fc57829003601f168201915b505050505090508c565b6002602052816000526040600020818154811061173f57600080fd5b90600052602060002001600091509150505481565b6003600083815260200190815260200160002060060160009054906101000a900473ffffffffffffffffffffffffffffffffffffffff168073ffffffffffffffffffffffffffffffffffffffff163373ffffffffffffffffffffffffffffffffffffffff16146117f9576040517f08c379a00000000000000000000000000000000000000000000000000000000081526004016117f0906125eb565b60405180910390fd5b60006003600085815260200190815260200160002090508281600b01908161182191906123db565b507f7b6a06db18c17d9b85103645b4173a2a67839a3436af22470d66a16ab6db4a07848460405161185392919061260b565b60405180910390a150505050565b6001602052816000526040600020818154811061187d57600080fd5b90600052602060002001600091509150505481565b604051806101800160405280606081526020016060815260200160608152602001606081526020016060815260200160608152602001600073ffffffffffffffffffffffffffffffffffffffff1681526020016060815260200160008152602001600073ffffffffffffffffffffffffffffffffffffffff16815260200160008152602001606081525090565b600081519050919050565b600082825260208201905092915050565b6000819050602082019050919050565b6000819050919050565b61195e8161194b565b82525050565b60006119708383611955565b60208301905092915050565b6000602082019050919050565b60006119948261191f565b61199e818561192a565b93506119a98361193b565b8060005b838110156119da5781516119c18882611964565b97506119cc8361197c565b9250506001810190506119ad565b5085935050505092915050565b60006020820190508181036000830152611a018184611989565b905092915050565b6000604051905090565b600080fd5b600080fd5b611a268161194b565b8114611a3157600080fd5b50565b600081359050611a4381611a1d565b92915050565b600060208284031215611a5f57611a5e611a13565b5b6000611a6d84828501611a34565b91505092915050565b600081519050919050565b600082825260208201905092915050565b60005b83811015611ab0578082015181840152602081019050611a95565b60008484015250505050565b6000601f19601f8301169050919050565b6000611ad882611a76565b611ae28185611a81565b9350611af2818560208601611a92565b611afb81611abc565b840191505092915050565b600073ffffffffffffffffffffffffffffffffffffffff82169050919050565b6000611b3182611b06565b9050919050565b611b4181611b26565b82525050565b6000610180830160008301518482036000860152611b658282611acd565b91505060208301518482036020860152611b7f8282611acd565b91505060408301518482036040860152611b998282611acd565b91505060608301518482036060860152611bb38282611acd565b91505060808301518482036080860152611bcd8282611acd565b91505060a083015184820360a0860152611be78282611acd565b91505060c0830151611bfc60c0860182611b38565b5060e083015184820360e0860152611c148282611acd565b915050610100830151611c2b610100860182611955565b50610120830151611c40610120860182611b38565b50610140830151611c55610140860182611955565b50610160830151848203610160860152611c6f8282611acd565b9150508091505092915050565b60006020820190508181036000830152611c968184611b47565b905092915050565b600082825260208201905092915050565b6000611cba82611a76565b611cc48185611c9e565b9350611cd4818560208601611a92565b611cdd81611abc565b840191505092915050565b611cf181611b26565b82525050565b611d008161194b565b82525050565b6000610180820190508181036000830152611d21818f611caf565b90508181036020830152611d35818e611caf565b90508181036040830152611d49818d611caf565b90508181036060830152611d5d818c611caf565b90508181036080830152611d71818b611caf565b905081810360a0830152611d85818a611caf565b9050611d9460c0830189611ce8565b81810360e0830152611da68188611caf565b9050611db6610100830187611cf7565b611dc4610120830186611ce8565b611dd2610140830185611cf7565b818103610160830152611de58184611caf565b90509d9c50505050505050505050505050565b600080fd5b600080fd5b7f4e487b7100000000000000000000000000000000000000000000000000000000600052604160045260246000fd5b611e3a82611abc565b810181811067ffffffffffffffff82111715611e5957611e58611e02565b5b80604052505050565b6000611e6c611a09565b9050611e788282611e31565b919050565b600067ffffffffffffffff821115611e9857611e97611e02565b5b611ea182611abc565b9050602081019050919050565b82818337600083830152505050565b6000611ed0611ecb84611e7d565b611e62565b905082815260208101848484011115611eec57611eeb611dfd565b5b611ef7848285611eae565b509392505050565b600082601f830112611f1457611f13611df8565b5b8135611f24848260208601611ebd565b91505092915050565b611f3681611b26565b8114611f4157600080fd5b50565b600081359050611f5381611f2d565b92915050565b6000806000806000806000806000806101408b8d031215611f7d57611f7c611a13565b5b60008b013567ffffffffffffffff811115611f9b57611f9a611a18565b5b611fa78d828e01611eff565b9a505060208b013567ffffffffffffffff811115611fc857611fc7611a18565b5b611fd48d828e01611eff565b99505060408b013567ffffffffffffffff811115611ff557611ff4611a18565b5b6120018d828e01611eff565b98505060608b013567ffffffffffffffff81111561202257612021611a18565b5b61202e8d828e01611eff565b97505060808b013567ffffffffffffffff81111561204f5761204e611a18565b5b61205b8d828e01611eff565b96505060a08b013567ffffffffffffffff81111561207c5761207b611a18565b5b6120888d828e01611eff565b95505060c06120998d828e01611f44565b94505060e08b013567ffffffffffffffff8111156120ba576120b9611a18565b5b6120c68d828e01611eff565b9350506101006120d88d828e01611a34565b9250506101208b013567ffffffffffffffff8111156120fa576120f9611a18565b5b6121068d828e01611eff565b9150509295989b9194979a5092959850565b6000806040838503121561212f5761212e611a13565b5b600061213d85828601611f44565b925050602061214e85828601611a34565b9150509250929050565b600060208201905061216d6000830184611cf7565b92915050565b6000806040838503121561218a57612189611a13565b5b600061219885828601611a34565b925050602083013567ffffffffffffffff8111156121b9576121b8611a18565b5b6121c585828601611eff565b9150509250929050565b7f4e487b7100000000000000000000000000000000000000000000000000000000600052602260045260246000fd5b6000600282049050600182168061221657607f821691505b602082108103612229576122286121cf565b5b50919050565b60008190508160005260206000209050919050565b60006020601f8301049050919050565b600082821b905092915050565b6000600883026122917fffffffffffffffffffffffffffffffffffffffffffffffffffffffffffffffff82612254565b61229b8683612254565b95508019841693508086168417925050509392505050565b6000819050919050565b60006122d86122d36122ce8461194b565b6122b3565b61194b565b9050919050565b6000819050919050565b6122f2836122bd565b6123066122fe826122df565b848454612261565b825550505050565b600090565b61231b61230e565b6123268184846122e9565b505050565b5b8181101561234a5761233f600082612313565b60018101905061232c565b5050565b601f82111561238f576123608161222f565b61236984612244565b81016020851015612378578190505b61238c61238485612244565b83018261232b565b50505b505050565b600082821c905092915050565b60006123b260001984600802612394565b1980831691505092915050565b60006123cb83836123a1565b9150826002028217905092915050565b6123e482611a76565b67ffffffffffffffff8111156123fd576123fc611e02565b5b61240782546121fe565b61241282828561234e565b600060209050601f8311600181146124455760008415612433578287015190505b61243d85826123bf565b8655506124a5565b601f1984166124538661222f565b60005b8281101561247b57848901518255600182019150602085019450602081019050612456565b868310156124985784890151612494601f8916826123a1565b8355505b6001600288020188555050505b505050505050565b6000610180820190506124c3600083018f611cf7565b81810360208301526124d5818e611caf565b905081810360408301526124e9818d611caf565b905081810360608301526124fd818c611caf565b90508181036080830152612511818b611caf565b905081810360a0830152612525818a611caf565b905081810360c08301526125398189611caf565b905061254860e0830188611ce8565b81810361010083015261255b8187611caf565b905061256b610120830186611ce8565b612579610140830185611cf7565b81810361016083015261258c8184611caf565b90509d9c50505050505050505050505050565b7f4e6f7420617574686f72697a6564000000000000000000000000000000000000600082015250565b60006125d5600e83611c9e565b91506125e08261259f565b602082019050919050565b60006020820190508181036000830152612604816125c8565b9050919050565b60006040820190506126206000830185611cf7565b81810360208301526126328184611caf565b9050939250505056fea2646970667358221220ffcf9280a70110ad51590ded15303f4ea340d63e9f5b0da731378a89826614bd64736f6c63430008180033",
  "linkReferences": {},
  "deployedLinkReferences": {}
}